{
  "contractName": "Donation",
  "abi": [
    {
      "anonymous": false,
      "inputs": [
        {
          "indexed": false,
          "internalType": "uint256",
          "name": "id",
          "type": "uint256"
        },
        {
          "indexed": false,
          "internalType": "address",
          "name": "donateur",
          "type": "address"
        },
        {
          "indexed": false,
          "internalType": "uint256",
          "name": "montant",
          "type": "uint256"
        },
        {
          "indexed": false,
          "internalType": "uint256",
          "name": "timestamp",
          "type": "uint256"
        }
      ],
      "name": "DonationEffectuee",
      "type": "event"
    },
    {
      "inputs": [
        {
          "internalType": "address",
          "name": "",
          "type": "address"
        },
        {
          "internalType": "uint256",
          "name": "",
          "type": "uint256"
        }
      ],
      "name": "donateurToDonations",
      "outputs": [
        {
          "internalType": "uint256",
          "name": "",
          "type": "uint256"
        }
      ],
      "stateMutability": "view",
      "type": "function",
      "constant": true
    },
    {
      "inputs": [
        {
          "internalType": "uint256",
          "name": "",
          "type": "uint256"
        }
      ],
      "name": "donations",
      "outputs": [
        {
          "internalType": "uint256",
          "name": "id",
          "type": "uint256"
        },
        {
          "internalType": "address",
          "name": "donateur",
          "type": "address"
        },
        {
          "internalType": "uint256",
          "name": "montant",
          "type": "uint256"
        },
        {
          "internalType": "uint256",
          "name": "timestamp",
          "type": "uint256"
        }
      ],
      "stateMutability": "view",
      "type": "function",
      "constant": true
    },
    {
      "inputs": [],
      "name": "nextId",
      "outputs": [
        {
          "internalType": "uint256",
          "name": "",
          "type": "uint256"
        }
      ],
      "stateMutability": "view",
      "type": "function",
      "constant": true
    },
    {
      "inputs": [],
      "name": "createDonation",
      "outputs": [],
      "stateMutability": "payable",
      "type": "function",
      "payable": true
    },
    {
      "inputs": [
        {
          "internalType": "address",
          "name": "_donateur",
          "type": "address"
        }
      ],
      "name": "getDonationsByDonateur",
      "outputs": [
        {
          "internalType": "uint256[]",
          "name": "",
          "type": "uint256[]"
        }
      ],
      "stateMutability": "view",
      "type": "function",
      "constant": true
    }
  ],
  "bytecode": "0x608060405234801561001057600080fd5b506107da806100206000396000f3fe60806040526004361061004a5760003560e01c806308196a9e1461004f5780635a0dbc781461005957806361b8ce8c1461009657806388c656ab146100c1578063f8626af8146100fe575b600080fd5b61005761013e565b005b34801561006557600080fd5b50610080600480360381019061007b9190610468565b6102f7565b60405161008d9190610618565b60405180910390f35b3480156100a257600080fd5b506100ab610328565b6040516100b89190610618565b60405180910390f35b3480156100cd57600080fd5b506100e860048036038101906100e3919061043f565b61032e565b6040516100f591906105d6565b60405180910390f35b34801561010a57600080fd5b50610125600480360381019061012091906104a4565b6103c5565b6040516101359493929190610633565b60405180910390f35b60003411610181576040517f08c379a0000000000000000000000000000000000000000000000000000000008152600401610178906105f8565b60405180910390fd5b604051806080016040528060025481526020013373ffffffffffffffffffffffffffffffffffffffff1681526020013481526020014281525060008060025481526020019081526020016000206000820151816000015560208201518160010160006101000a81548173ffffffffffffffffffffffffffffffffffffffff021916908373ffffffffffffffffffffffffffffffffffffffff1602179055506040820151816002015560608201518160030155905050600160003373ffffffffffffffffffffffffffffffffffffffff1673ffffffffffffffffffffffffffffffffffffffff16815260200190815260200160002060025490806001815401808255809150506001900390600052602060002001600090919091909150557f60d5f0d88e0c6b9b25d4051f2e7a6e08d7349db58e27cc44f410bb146922289a6002543334426040516102d59493929190610633565b60405180910390a1600260008154809291906102f0906106fe565b9190505550565b6001602052816000526040600020818154811061031357600080fd5b90600052602060002001600091509150505481565b60025481565b6060600160008373ffffffffffffffffffffffffffffffffffffffff1673ffffffffffffffffffffffffffffffffffffffff1681526020019081526020016000208054806020026020016040519081016040528092919081815260200182805480156103b957602002820191906000526020600020905b8154815260200190600101908083116103a5575b50505050509050919050565b60006020528060005260406000206000915090508060000154908060010160009054906101000a900473ffffffffffffffffffffffffffffffffffffffff16908060020154908060030154905084565b60008135905061042481610776565b92915050565b6000813590506104398161078d565b92915050565b60006020828403121561045157600080fd5b600061045f84828501610415565b91505092915050565b6000806040838503121561047b57600080fd5b600061048985828601610415565b925050602061049a8582860161042a565b9150509250929050565b6000602082840312156104b657600080fd5b60006104c48482850161042a565b91505092915050565b60006104d983836105b8565b60208301905092915050565b6104ee816106c2565b82525050565b60006104ff82610688565b61050981856106a0565b935061051483610678565b8060005b8381101561054557815161052c88826104cd565b975061053783610693565b925050600181019050610518565b5085935050505092915050565b600061055f6034836106b1565b91507f4c65206d6f6e74616e74206465206c6120646f6e6174696f6e20646f6974206560008301527f747265207375706572696575722061207a65726f0000000000000000000000006020830152604082019050919050565b6105c1816106f4565b82525050565b6105d0816106f4565b82525050565b600060208201905081810360008301526105f081846104f4565b905092915050565b6000602082019050818103600083015261061181610552565b9050919050565b600060208201905061062d60008301846105c7565b92915050565b600060808201905061064860008301876105c7565b61065560208301866104e5565b61066260408301856105c7565b61066f60608301846105c7565b95945050505050565b6000819050602082019050919050565b600081519050919050565b6000602082019050919050565b600082825260208201905092915050565b600082825260208201905092915050565b60006106cd826106d4565b9050919050565b600073ffffffffffffffffffffffffffffffffffffffff82169050919050565b6000819050919050565b6000610709826106f4565b91507fffffffffffffffffffffffffffffffffffffffffffffffffffffffffffffffff82141561073c5761073b610747565b5b600182019050919050565b7f4e487b7100000000000000000000000000000000000000000000000000000000600052601160045260246000fd5b61077f816106c2565b811461078a57600080fd5b50565b610796816106f4565b81146107a157600080fd5b5056fea2646970667358221220fd13b26733ca249c651157e407b398776a8f3482f8041ca318528813b54810cb64736f6c63430008000033",
  "immutableReferences": {},
  "source": "pragma solidity ^0.8.0;\n \ncontract Donation {\n\n    struct DonationStruct {\n\n        uint id;\n\n        address donateur;\n\n        uint montant;\n\n        uint timestamp;\n\n    }\n \n    mapping(uint => DonationStruct) public donations;\n\n    mapping(address => uint[]) public donateurToDonations;\n \n    uint public nextId;\n \n    event DonationEffectuee(uint id, address donateur, uint montant, uint timestamp);\n \n    function createDonation() external payable {\n\n        require(msg.value > 0, \"Le montant de la donation doit etre superieur a zero\");\n \n        donations[nextId] = DonationStruct(nextId, msg.sender, msg.value, block.timestamp);\n\n        donateurToDonations[msg.sender].push(nextId);\n \n        emit DonationEffectuee(nextId, msg.sender, msg.value, block.timestamp);\n \n        nextId++;\n\n    }\n \n    function getDonationsByDonateur(address _donateur) external view returns (uint[] memory) {\n\n        return donateurToDonations[_donateur];\n\n    }\n\n}",
  "sourcePath": "/Users/akbar.khan/donation_app/contracts/Donation.sol",
  "compiler": {
    "name": "solc",
    "version": "0.8.0+commit.c7dfd78e.Emscripten.clang"
  },
  "schemaVersion": "3.4.16",
  "updatedAt": "2024-07-05T09:18:34.063Z",
  "networkType": "ethereum",
  "devdoc": {
    "kind": "dev",
    "methods": {},
    "version": 1
  },
  "userdoc": {
    "kind": "user",
    "methods": {},
    "version": 1
  }
}